:080003000000000000000000F5
:05098A004200BF000067
:10091900900099EDF01207F8900099E0F4F5807FC6
:0A092900017E001208C27580FF2253
:1005880078917C007D017BFF7A0079037E007F08EB
:100598001200DE7B017A007991120440E490009009
:1005A800F0900090E0FE7480A806088002C313D87B
:1005B800FCFF74912EF582E43400F583E0FD120906
:0D05C80019900090E004F0E0C3940840D4C6
:0105D5002203
:03000B000204C923
:1004C900C0E0C0F0C083C082C0D075D000C000C0F9
:1004D90001C002C003C004C005C006C007758CDC9A
:1004E900758A009000C0E004F070069000BFE00437
:1004F900F0C39000C0E094329000BFE09400400740
:10050900E4F0A3F01202F4D007D006D005D004D04D
:1005190003D002D001D000D0D0D082D083D0F0D087
:02052900E032BE
:10062300E4FF7E807590FFEEF45290EEC313FE203C
:100633009308EF25E025E004FF22209209EF25E04F
:1006430025E02402FF22209109EF25E025E0240381
:10065300FF22209009EF25E025E02404FF220FEF7D
:05066300B404C17F6337
:01066800226F
:100726007DFF7F801209197DFF7F401209197DFF29
:100736007F201209197DFF7F101209197DFF7F089E
:100746001209197DFF7F041209197DFF7F02120924
:08075600197DFF7F0102091962
:1007C900900090EFF0BF02047F75801F900090E0C9
:1007D900B40A047F648014900090E0B405047F6C2F
:0F07E9008009900090E0B407057F7212079522F7
:1008530012099012089FE4FD7FDC12093312075E30
:10086300EF4E600512072680F412058812062390C6
:09087300008FEFF01207C980E4C8
:06095E00C2A58F80D2A7A4
:080964007F027EEFDEFEDFFCE6
:01096C002268
:0A097800C2A612095EC2A7020964BC
:10087C00E0FCA3E0FDCFCDCFCECCCE12016E7C0040
:09088C007D0A12016EED2430FF1B
:0A089500D2A612095EC2A702096490
:0508E000EAF0A3EBF0BB
:1008E500AE07EEB40104ED148007EEB40209ED2461
:0808F5003F4480FF1209782244
:10094A007F381209787F0C1209787F061209787F9E
:04095A000102097815
:080982001208E5AF030208951D
:0B0826009000BCEBF0A3EAF0A3E9F0A7
:100831001208E5E4FD9000BCE0FBA3E0FAA3E0F9B7
:100841008D8275830012011DFF60061208950D80CF
:01085100E4C2
:010852002283
:0C052B007F0AEA24FFFDE434FFFC7E00A0
:0E0537009000A3EEF0A3EFF0A3ECF0A3EDF024
:10054500A3E4F0A304F0E4FBEBFFD39000A6E09F47
:100555007480F89000A5E0648098401E9000A7E0A4
:10056500FEA3E0FF9000A3E0FCA3E0FD12015C9078
:1005750000A7EEF0A3EFF00B80CE9000A7E0FEA35E
:02058500E0FF95
:010587002251
:0308FD009000ABBD
:100900001208E0A3E0FAEAD39400400C12052B9001
:0809100000AB12087C1A80EE16
:0109180022BC
:100669001208E5C3EA64809480400F7F2B12089535
:100679009000A1EAF0A3EBF080127F2D120895C338
:10068900E49BFEE49A9000A1F0A3CEF09000A0E0D4
:10069900FAEAD39400400C12052B9000A112087CB1
:0306A9001A80EEC6
:0106AC00222B
:0306AD009000B00A
:1006B0001208E0A3E0FAEAD39400402D7F1012055F
:1006C0002D9000B0E0FCA3E0FDCFCDCFCECCCE127C
:1006D000016EEF540FFEC3940AEE500424308002E2
:0906E0002437FF1208951A80CDA1
:0106E90022EE
:0306EA009000B5C8
:1006ED001208E0A3E0FAEAD39400402CEA24FFFDBF
:1006FD00E434FFFC7F027E001205379000B5E0FC6C
:10070D00A3E0FDCFCDCFCECCCE12016EEF540124A0
:08071D0030FF1208951A80CE8E
:0107250022B1
:10089F009000007403F090004014F0900001F0906D
:1008AF000041F0900082F09000847472F0120211F7
:0308BF0002021121
:100211001205D6900082E0FDC374409DFDE4940078
:10022100FC1201C3900099EDF0E4900090F0900071
:1002310082E0FF900090E0C39F5046E0FF2440F52C
:1002410082E43400F583E0FD3395E0FC74912DF5F3
:100251008274003CF583C083C082E0FE74002FF5F8
:1002610082E43400F583E0FF7480A807088002C3AC
:1002710013D8FC4ED082D083F0900090E004F0803F
:10028100ADE4900090F0900090E0FFC394085062BC
:1002910074912FF582E43400F583E0F4604CE4FDC1
:1002A100900099E0700E900090E0900081F0900035
:1002B10080EDF022900090E02491F582E43400F585
:1002C10083E0FB7A0074807E00A805088006CEA238
:1002D100E713CE13D8F8FFEE5AFEEF5B4E7006908F
:1002E1000099E014F00DEDB408B6900090E004F030
:0202F1008094F7
:0102F30022E8
:0B044000900099EBF0A3EAF0A3E9F0B4
:10044B00900099E0FBA3E0FAA3E0F9900081E0FFB4
:10045B00E92FF9E43AFA120104FF900080E0FE74F0
:10046B0080A806088002C313D8FC4F12014AE4FF90
:10047B00900082E0FEEFC39E5043900099E0FBA3F7
:10048B00E0FAA3E0F974402FF582E43400F583E041
:10049B00FD3395E0FCE92DF9EA3CFA120104FE74F8
:1004AB00002FF582E43400F583E0FD7480A8050885
:0D04BB008002C313D8FC4E12014A0F80B31B
:0104C8002211
:10079500900084E0FEB47505EF64646026EEB464F1
:1007A50005EF6475601D900084E0B46C05EF64721C
:1007B5006011900084E0B47205EF646C60059000F0
:0407C50084EFF022AB
:1002F400900082E014FE2400F582E43400F583E0EB
:10030400FD74402EF582E43400F583E0FCEED394D2
:1003140000403374FF2EF582E434FFF583E0FF746C
:10032400002EF582E43400F583EFF0743F2EF5825D
:10033400E43400F583E0FF74402EF582E43400F5E4
:1003440083EFF01E80C7900084E0FFB47505900031
:10035400408010EFB464059000408013EFB46C0843
:10036400900000E014F0800AEFB47206900000E000
:1003740004F0900040E0FF900081E0B50731900068
:1003840000E0FF900080E0B50725900082E0FE24A5
:1003940000F582E43400F583EDF074402EF582E438
:0F03A4003400F583ECF0900082E004F0120211B7
:0103B3002227
:10075E00E4900090F0A3F0900000E0FFC36480945A
:10076E0088501BC3EF648094804013900040E0FFDC
:10077E00648094885008C3EF6480948050057E0096
:06078E007F0122E4FEFFE2
:010794002242
:05099000C2B6C2B52251
:0207F800AD074B
:1007FA00E4FB74807E00A803088006CEA2E713CE2D
:10080A0013D8F8FFEDF582EF558224FF92B4D2B6E1
:0B081A00C2B60BEBB408DBD2B5C2B5D0
:0108250022B0
:0B096D00EF1FAC0670011E4C70F6225C
:1008C200D3EF9400EE940040147D6E7C00ED1D7019
:0D08D200011CED4C70F7EF1F70E61E80E377
:0108DF0022F6
:100933005389F0438901C28D8F8AAF058F8CD2AF63
:07094300D2A9C2B9D28C2237
:030000000203B444
:0C03B400787FE4F6D8FD7581070203FB9A
:10000E00E709F608DFFA8046E709F208DFFA803ED4
:10001E0088828C83E709F0A3DFFA8032E309F608C1
:10002E00DFFA8078E309F208DFFA807088828C8329
:10003E00E309F0A3DFFA806489828A83E0A3F608DD
:10004E00DFFA805889828A83E0A3F208DFFA804CB7
:10005E0080D280FA80C680D4806980F2803380108E
:10006E0080A680EA809A80A880DA80E280CA8033F7
:10007E0089828A83ECFAE493A3C8C582C8CCC5836F
:10008E00CCF0A3C8C582C8CCC583CCDFE9DEE7803F
:10009E000D89828A83E493A3F608DFF9ECFAA9F0BE
:1000AE00EDFB2289828A83ECFAE0A3C8C582C8CC14
:1000BE00C583CCF0A3C8C582C8CCC583CCDFEADE2D
:1000CE00E880DB89828A83E493A3F208DFF980CC8F
:1000DE0088F0EF60010E4E60C388F0ED2402B40488
:1000EE000050B9F582EB2402B4040050AF2323452F
:0600FE00822390005E73F6
:10010400BB010689828A83E0225002E722BBFE02F9
:09011400E32289828A83E493222C
:10011D00BB010CE58229F582E5833AF583E0225097
:10012D0006E92582F8E622BBFE06E92582F8E222E1
:0D013D00E58229F582E5833AF583E49322FB
:10014A00BB010689828A83F0225002F722BBFE0194
:02015A00F3228E
:10015C00EF8DF0A4A8F0CF8CF0A428CE8DF0A42EB7
:02016C00FE2271
:10016E00BC000BBE0029EF8DF084FFADF022E4CC75
:10017E00F875F008EF2FFFEE33FEEC33FCEE9DEC3E
:10018E00984005FCEE9DFE0FD5F0E9E4CEFD22ED84
:10019E00F8F5F0EE8420D21CFEADF075F008EF2FCE
:1001AE00FFED33FD4007985006D5F0F222C398FDBF
:0501BE000FD5F0EA225C
:1001C300C2D5EC30E709B2D5E4C39DFDE49CFCEE57
:1001D30030E715B2D5E4C39FFFE49EFE12016EC360
:1001E300E49DFDE49CFC800312016E30D507C3E45B
:0601F3009FFFE49EFE22C6
:1005D6009000B81201F97810EC4D4E4F70047CA5CE
:1005E6007DA5C3EC13FCED13FDEE13FEEF13FF50D8
:1005F60010EC64CCFCED644CFDEE644EFEEF64CE74
:10060600FFD8DF9000B8120205EE547FFE2290005C
:0D061600B8EEF0EFA3F0A374A5F0A3F0225E
:1003C000020853E493A3F8E493A34003F68001F2F8
:1003D00008DFF48029E493A3F85407240CC8C3333E
:1003E000C4540F4420C8834004F456800146F6DF0D
:1003F000E4800B010204081020408090098AE47E0A
:10040000019360BCA3FF543F30E509541FFEE49301
:10041000A360010ECF54C025E060A840B8E493A3C8
:10042000FAE493A3F8E493A3C8C582C8CAC583CAF3
:10043000F0A3C8C582C8CAC583CADFE9DEE780BEAB
:01098F000067
:0C01F900E0FCA3E0FDA3E0FEA3E0FF2279
:0C020500ECF0A3EDF0A3EEF0A3EFF0226C
:00000001FF
